{"abi":[{"type":"constructor","inputs":[{"name":"swapContract","type":"address","internalType":"address"},{"name":"erc20SwapContract","type":"address","internalType":"address"},{"name":"permit2Contract","type":"address","internalType":"address"}],"stateMutability":"nonpayable"},{"type":"receive","stateMutability":"payable"},{"type":"function","name":"DOMAIN_SEPARATOR","inputs":[],"outputs":[{"name":"","type":"bytes32","internalType":"bytes32"}],"stateMutability":"view"},{"type":"function","name":"ERC20_SWAP_CONTRACT","inputs":[],"outputs":[{"name":"","type":"address","internalType":"contract ERC20Swap"}],"stateMutability":"view"},{"type":"function","name":"PERMIT2","inputs":[],"outputs":[{"name":"","type":"address","internalType":"contract ISignatureTransfer"}],"stateMutability":"view"},{"type":"function","name":"SWAP_CONTRACT","inputs":[],"outputs":[{"name":"","type":"address","internalType":"contract EtherSwap"}],"stateMutability":"view"},{"type":"function","name":"TYPEHASH_CLAIM","inputs":[],"outputs":[{"name":"","type":"bytes32","internalType":"bytes32"}],"stateMutability":"view"},{"type":"function","name":"TYPEHASH_CLAIM_CALL","inputs":[],"outputs":[{"name":"","type":"bytes32","internalType":"bytes32"}],"stateMutability":"view"},{"type":"function","name":"TYPEHASH_EXECUTE_LOCK_ERC20","inputs":[],"outputs":[{"name":"","type":"bytes32","internalType":"bytes32"}],"stateMutability":"view"},{"type":"function","name":"TYPESTRING_EXECUTE_LOCK_ERC20","inputs":[],"outputs":[{"name":"","type":"string","internalType":"string"}],"stateMutability":"view"},{"type":"function","name":"VERSION","inputs":[],"outputs":[{"name":"","type":"uint8","internalType":"uint8"}],"stateMutability":"view"},{"type":"function","name":"claimCall","inputs":[{"name":"claim","type":"tuple","internalType":"struct Router.Claim","components":[{"name":"preimage","type":"bytes32","internalType":"bytes32"},{"name":"amount","type":"uint256","internalType":"uint256"},{"name":"refundAddress","type":"address","internalType":"address"},{"name":"timelock","type":"uint256","internalType":"uint256"},{"name":"v","type":"uint8","internalType":"uint8"},{"name":"r","type":"bytes32","internalType":"bytes32"},{"name":"s","type":"bytes32","internalType":"bytes32"}]},{"name":"callee","type":"address","internalType":"address"},{"name":"callData","type":"bytes","internalType":"bytes"}],"outputs":[],"stateMutability":"nonpayable"},{"type":"function","name":"claimCall","inputs":[{"name":"claim","type":"tuple","internalType":"struct Router.Claim","components":[{"name":"preimage","type":"bytes32","internalType":"bytes32"},{"name":"amount","type":"uint256","internalType":"uint256"},{"name":"refundAddress","type":"address","internalType":"address"},{"name":"timelock","type":"uint256","internalType":"uint256"},{"name":"v","type":"uint8","internalType":"uint8"},{"name":"r","type":"bytes32","internalType":"bytes32"},{"name":"s","type":"bytes32","internalType":"bytes32"}]},{"name":"callee","type":"address","internalType":"address"},{"name":"callData","type":"bytes","internalType":"bytes"},{"name":"v","type":"uint8","internalType":"uint8"},{"name":"r","type":"bytes32","internalType":"bytes32"},{"name":"s","type":"bytes32","internalType":"bytes32"}],"outputs":[],"stateMutability":"nonpayable"},{"type":"function","name":"claimERC20Call","inputs":[{"name":"claim","type":"tuple","internalType":"struct Router.Erc20Claim","components":[{"name":"preimage","type":"bytes32","internalType":"bytes32"},{"name":"amount","type":"uint256","internalType":"uint256"},{"name":"tokenAddress","type":"address","internalType":"address"},{"name":"refundAddress","type":"address","internalType":"address"},{"name":"timelock","type":"uint256","internalType":"uint256"},{"name":"v","type":"uint8","internalType":"uint8"},{"name":"r","type":"bytes32","internalType":"bytes32"},{"name":"s","type":"bytes32","internalType":"bytes32"}]},{"name":"callee","type":"address","internalType":"address"},{"name":"callData","type":"bytes","internalType":"bytes"},{"name":"v","type":"uint8","internalType":"uint8"},{"name":"r","type":"bytes32","internalType":"bytes32"},{"name":"s","type":"bytes32","internalType":"bytes32"}],"outputs":[],"stateMutability":"nonpayable"},{"type":"function","name":"claimERC20Call","inputs":[{"name":"claim","type":"tuple","internalType":"struct Router.Erc20Claim","components":[{"name":"preimage","type":"bytes32","internalType":"bytes32"},{"name":"amount","type":"uint256","internalType":"uint256"},{"name":"tokenAddress","type":"address","internalType":"address"},{"name":"refundAddress","type":"address","internalType":"address"},{"name":"timelock","type":"uint256","internalType":"uint256"},{"name":"v","type":"uint8","internalType":"uint8"},{"name":"r","type":"bytes32","internalType":"bytes32"},{"name":"s","type":"bytes32","internalType":"bytes32"}]},{"name":"callee","type":"address","internalType":"address"},{"name":"callData","type":"bytes","internalType":"bytes"}],"outputs":[],"stateMutability":"nonpayable"},{"type":"function","name":"claimERC20Execute","inputs":[{"name":"claim","type":"tuple","internalType":"struct Router.Erc20Claim","components":[{"name":"preimage","type":"bytes32","internalType":"bytes32"},{"name":"amount","type":"uint256","internalType":"uint256"},{"name":"tokenAddress","type":"address","internalType":"address"},{"name":"refundAddress","type":"address","internalType":"address"},{"name":"timelock","type":"uint256","internalType":"uint256"},{"name":"v","type":"uint8","internalType":"uint8"},{"name":"r","type":"bytes32","internalType":"bytes32"},{"name":"s","type":"bytes32","internalType":"bytes32"}]},{"name":"calls","type":"tuple[]","internalType":"struct Router.Call[]","components":[{"name":"target","type":"address","internalType":"address"},{"name":"value","type":"uint256","internalType":"uint256"},{"name":"callData","type":"bytes","internalType":"bytes"}]},{"name":"token","type":"address","internalType":"address"},{"name":"minAmountOut","type":"uint256","internalType":"uint256"},{"name":"destination","type":"address","internalType":"address"},{"name":"v","type":"uint8","internalType":"uint8"},{"name":"r","type":"bytes32","internalType":"bytes32"},{"name":"s","type":"bytes32","internalType":"bytes32"}],"outputs":[],"stateMutability":"nonpayable"},{"type":"function","name":"claimERC20Execute","inputs":[{"name":"claim","type":"tuple","internalType":"struct Router.Erc20Claim","components":[{"name":"preimage","type":"bytes32","internalType":"bytes32"},{"name":"amount","type":"uint256","internalType":"uint256"},{"name":"tokenAddress","type":"address","internalType":"address"},{"name":"refundAddress","type":"address","internalType":"address"},{"name":"timelock","type":"uint256","internalType":"uint256"},{"name":"v","type":"uint8","internalType":"uint8"},{"name":"r","type":"bytes32","internalType":"bytes32"},{"name":"s","type":"bytes32","internalType":"bytes32"}]},{"name":"calls","type":"tuple[]","internalType":"struct Router.Call[]","components":[{"name":"target","type":"address","internalType":"address"},{"name":"value","type":"uint256","internalType":"uint256"},{"name":"callData","type":"bytes","internalType":"bytes"}]},{"name":"token","type":"address","internalType":"address"},{"name":"minAmountOut","type":"uint256","internalType":"uint256"}],"outputs":[],"stateMutability":"nonpayable"},{"type":"function","name":"claimExecute","inputs":[{"name":"claim","type":"tuple","internalType":"struct Router.Claim","components":[{"name":"preimage","type":"bytes32","internalType":"bytes32"},{"name":"amount","type":"uint256","internalType":"uint256"},{"name":"refundAddress","type":"address","internalType":"address"},{"name":"timelock","type":"uint256","internalType":"uint256"},{"name":"v","type":"uint8","internalType":"uint8"},{"name":"r","type":"bytes32","internalType":"bytes32"},{"name":"s","type":"bytes32","internalType":"bytes32"}]},{"name":"calls","type":"tuple[]","internalType":"struct Router.Call[]","components":[{"name":"target","type":"address","internalType":"address"},{"name":"value","type":"uint256","internalType":"uint256"},{"name":"callData","type":"bytes","internalType":"bytes"}]},{"name":"token","type":"address","internalType":"address"},{"name":"minAmountOut","type":"uint256","internalType":"uint256"}],"outputs":[],"stateMutability":"nonpayable"},{"type":"function","name":"claimExecute","inputs":[{"name":"claim","type":"tuple","internalType":"struct Router.Claim","components":[{"name":"preimage","type":"bytes32","internalType":"bytes32"},{"name":"amount","type":"uint256","internalType":"uint256"},{"name":"refundAddress","type":"address","internalType":"address"},{"name":"timelock","type":"uint256","internalType":"uint256"},{"name":"v","type":"uint8","internalType":"uint8"},{"name":"r","type":"bytes32","internalType":"bytes32"},{"name":"s","type":"bytes32","internalType":"bytes32"}]},{"name":"calls","type":"tuple[]","internalType":"struct Router.Call[]","components":[{"name":"target","type":"address","internalType":"address"},{"name":"value","type":"uint256","internalType":"uint256"},{"name":"callData","type":"bytes","internalType":"bytes"}]},{"name":"token","type":"address","internalType":"address"},{"name":"minAmountOut","type":"uint256","internalType":"uint256"},{"name":"destination","type":"address","internalType":"address"},{"name":"v","type":"uint8","internalType":"uint8"},{"name":"r","type":"bytes32","internalType":"bytes32"},{"name":"s","type":"bytes32","internalType":"bytes32"}],"outputs":[],"stateMutability":"nonpayable"},{"type":"function","name":"executeAndLock","inputs":[{"name":"preimageHash","type":"bytes32","internalType":"bytes32"},{"name":"claimAddress","type":"address","internalType":"address"},{"name":"refundAddress","type":"address","internalType":"address"},{"name":"timelock","type":"uint256","internalType":"uint256"},{"name":"calls","type":"tuple[]","internalType":"struct Router.Call[]","components":[{"name":"target","type":"address","internalType":"address"},{"name":"value","type":"uint256","internalType":"uint256"},{"name":"callData","type":"bytes","internalType":"bytes"}]}],"outputs":[],"stateMutability":"payable"},{"type":"function","name":"executeAndLockERC20","inputs":[{"name":"preimageHash","type":"bytes32","internalType":"bytes32"},{"name":"tokenAddress","type":"address","internalType":"address"},{"name":"claimAddress","type":"address","internalType":"address"},{"name":"refundAddress","type":"address","internalType":"address"},{"name":"timelock","type":"uint256","internalType":"uint256"},{"name":"calls","type":"tuple[]","internalType":"struct Router.Call[]","components":[{"name":"target","type":"address","internalType":"address"},{"name":"value","type":"uint256","internalType":"uint256"},{"name":"callData","type":"bytes","internalType":"bytes"}]}],"outputs":[],"stateMutability":"payable"},{"type":"function","name":"executeAndLockERC20WithPermit2","inputs":[{"name":"preimageHash","type":"bytes32","internalType":"bytes32"},{"name":"tokenAddress","type":"address","internalType":"address"},{"name":"claimAddress","type":"address","internalType":"address"},{"name":"refundAddress","type":"address","internalType":"address"},{"name":"timelock","type":"uint256","internalType":"uint256"},{"name":"calls","type":"tuple[]","internalType":"struct Router.Call[]","components":[{"name":"target","type":"address","internalType":"address"},{"name":"value","type":"uint256","internalType":"uint256"},{"name":"callData","type":"bytes","internalType":"bytes"}]},{"name":"permit","type":"tuple","internalType":"struct ISignatureTransfer.PermitTransferFrom","components":[{"name":"permitted","type":"tuple","internalType":"struct ISignatureTransfer.TokenPermissions","components":[{"name":"token","type":"address","internalType":"address"},{"name":"amount","type":"uint256","internalType":"uint256"}]},{"name":"nonce","type":"uint256","internalType":"uint256"},{"name":"deadline","type":"uint256","internalType":"uint256"}]},{"name":"signature","type":"bytes","internalType":"bytes"}],"outputs":[],"stateMutability":"payable"},{"type":"error","name":"CallFailed","inputs":[{"name":"index","type":"uint256","internalType":"uint256"}]},{"type":"error","name":"ClaimInvalidAddress","inputs":[]},{"type":"error","name":"InsufficientBalance","inputs":[]},{"type":"error","name":"ReentrancyGuardReentrantCall","inputs":[]},{"type":"error","name":"SafeERC20FailedOperation","inputs":[{"name":"token","type":"address","internalType":"address"}]},{"type":"error","name":"SwapCallNotAllowed","inputs":[]},{"type":"error","name":"TokenMismatch","inputs":[]}],"bytecode":{"object":"0x7f8b73c3c69bb8fe3d512ecc4cf759cc79239f7b179b0ffacaa9a75d522b39400f6101209081527f3f0593d90c203cedd52beaf1f2e33ef6958a48ee6bc9180eb653d00d34ee618d610140527fad7c5bef027816a800da1736444fb58a807ef4c9603b7848673f7e3a68eb14a5610160524661018052306101a05260a06101008190526101c0604052902060e05234801561009957600080fd5b50604051612e0b380380612e0b8339810160408190526100b891610115565b60017f9b779b17422d0df92223018b32b4d1fa46e071723d6817e2486d003becc55f00556001600160a01b0392831660805290821660a0521660c052610158565b80516001600160a01b038116811461011057600080fd5b919050565b60008060006060848603121561012a57600080fd5b610133846100f9565b9250610141602085016100f9565b915061014f604085016100f9565b90509250925092565b60805160a05160c05160e051612c1f6101ec600039600081816102340152818161063f0152818161090201528181610dc90152610ec8015260008181610296015281816117bd0152611917015260008181610196015281816113dd0152818161176701528181611ab30152611b42015260008181610393015281816105040152818161163d01526117120152612c1f6000f3fe6080604052600436106101635760003560e01c8063a4d5d647116100c0578063ea81272e11610074578063ebb7af9211610059578063ebb7af921461041c578063fe54c24014610450578063ffa1ad741461047057600080fd5b8063ea81272e146103d5578063ea8cd088146103e857600080fd5b8063b47ec1a0116100a5578063b47ec1a01461035f578063cf3afa5114610381578063da2271c3146103b557600080fd5b8063a4d5d6471461032c578063a7b77acb1461033f57600080fd5b80635b2acb701161011757806373e09a78116100fc57806373e09a78146102b8578063891d6080146102ec5780639667434f1461030c57600080fd5b80635b2acb70146102645780636afdd8501461028457600080fd5b8063211f344011610148578063211f3440146101e25780633503c73d146102025780633644e5151461022257600080fd5b80631bcd0c091461016f5780632067b7ca1461018457600080fd5b3661016a57005b600080fd5b61018261017d36600461204a565b610497565b005b34801561019057600080fd5b506101b87f000000000000000000000000000000000000000000000000000000000000000081565b60405173ffffffffffffffffffffffffffffffffffffffff90911681526020015b60405180910390f35b3480156101ee57600080fd5b506101826101fd3660046120f5565b610593565b34801561020e57600080fd5b5061018261021d3660046121fa565b6107ab565b34801561022e57600080fd5b506102567f000000000000000000000000000000000000000000000000000000000000000081565b6040519081526020016101d9565b34801561027057600080fd5b5061018261027f366004612260565b6108f6565b34801561029057600080fd5b506101b87f000000000000000000000000000000000000000000000000000000000000000081565b3480156102c457600080fd5b506102567f19ac9140b08b00506c1962f90ff8781be79b2632dcbd9e86df54bcbd18cc62f981565b3480156102f857600080fd5b506101826103073660046122f2565b610bd0565b34801561031857600080fd5b50610182610327366004612364565b610c74565b61018261033a3660046123d7565b610c86565b34801561034b57600080fd5b5061018261035a3660046124bb565b610d1d565b34801561036b57600080fd5b50610374610e9f565b6040516101d991906125d9565b34801561038d57600080fd5b506101b87f000000000000000000000000000000000000000000000000000000000000000081565b3480156103c157600080fd5b506101826103d03660046125f3565b610ebc565b6101826103e3366004612686565b611151565b3480156103f457600080fd5b506102567f08487e29c43aa652b8d92ae7f71993123179f4cef490c858f3443d3c76fba69881565b34801561042857600080fd5b506102567fa47e6983ae363f2a4c612ca9d2c8acd221ad9a6dd1ae17020ccfa05f14074fcf81565b34801561045c57600080fd5b5061018261046b366004612715565b611199565b34801561047c57600080fd5b50610485600281565b60405160ff90911681526020016101d9565b61049f611280565b6104a982826112ae565b6040517f799f212b0000000000000000000000000000000000000000000000000000000081526004810187905273ffffffffffffffffffffffffffffffffffffffff86811660248301528581166044830152606482018590527f0000000000000000000000000000000000000000000000000000000000000000169063799f212b9047906084016000604051808303818588803b15801561054957600080fd5b505af115801561055d573d6000803e3d6000fd5b505050505061058b60017f9b779b17422d0df92223018b32b4d1fa46e071723d6817e2486d003becc55f0055565b505050505050565b61059b611280565b604080517fa47e6983ae363f2a4c612ca9d2c8acd221ad9a6dd1ae17020ccfa05f14074fcf6020808301919091528b358284015273ffffffffffffffffffffffffffffffffffffffff898116606084015260808301899052871660a0808401919091528351808403909101815260c0830190935282519201919091207f190100000000000000000000000000000000000000000000000000000000000060e08301527f000000000000000000000000000000000000000000000000000000000000000060e283015261010282015260019061012201604080517fffffffffffffffffffffffffffffffffffffffffffffffffffffffffffffffe08184030181528282528051602091820120600084529083018083525260ff861690820152606081018490526080810183905260a0016020604051602081039080840390855afa1580156106ec573d6000803e3d6000fd5b5050506020604051035173ffffffffffffffffffffffffffffffffffffffff166107158a6113c4565b73ffffffffffffffffffffffffffffffffffffffff1614610762576040517f8fdad36100000000000000000000000000000000000000000000000000000000815260040160405180910390fd5b61076c88886112ae565b610777848787611511565b6107a060017f9b779b17422d0df92223018b32b4d1fa46e071723d6817e2486d003becc55f0055565b505050505050505050565b6107b3611280565b336107bd85611624565b73ffffffffffffffffffffffffffffffffffffffff161461080a576040517f8fdad36100000000000000000000000000000000000000000000000000000000815260040160405180910390fd5b61081383611710565b60008373ffffffffffffffffffffffffffffffffffffffff1685602001358484604051610841929190612764565b60006040518083038185875af1925050503d806000811461087e576040519150601f19603f3d011682016040523d82523d6000602084013e610883565b606091505b50509050806108c6576040517f3f9a3b48000000000000000000000000000000000000000000000000000000008152600060048201526024015b60405180910390fd5b506108f060017f9b779b17422d0df92223018b32b4d1fa46e071723d6817e2486d003becc55f0055565b50505050565b6108fe611280565b60017f00000000000000000000000000000000000000000000000000000000000000007f19ac9140b08b00506c1962f90ff8781be79b2632dcbd9e86df54bcbd18cc62f98960000135898989604051610958929190612764565b60405190819003812061099c94939291602001938452602084019290925273ffffffffffffffffffffffffffffffffffffffff166040830152606082015260800190565b604051602081830303815290604052805190602001206040516020016109f49291907f190100000000000000000000000000000000000000000000000000000000000081526002810192909252602282015260420190565b604080517fffffffffffffffffffffffffffffffffffffffffffffffffffffffffffffffe08184030181528282528051602091820120600084529083018083525260ff861690820152606081018490526080810183905260a0016020604051602081039080840390855afa158015610a70573d6000803e3d6000fd5b5050506020604051035173ffffffffffffffffffffffffffffffffffffffff16610a9988611624565b73ffffffffffffffffffffffffffffffffffffffff1614610ae6576040517f8fdad36100000000000000000000000000000000000000000000000000000000815260040160405180910390fd5b610aef86611710565b60008673ffffffffffffffffffffffffffffffffffffffff1688602001358787604051610b1d929190612764565b60006040518083038185875af1925050503d8060008114610b5a576040519150601f19603f3d011682016040523d82523d6000602084013e610b5f565b606091505b5050905080610b9d576040517f3f9a3b48000000000000000000000000000000000000000000000000000000008152600060048201526024016108bd565b50610bc760017f9b779b17422d0df92223018b32b4d1fa46e071723d6817e2486d003becc55f0055565b50505050505050565b610bd8611280565b33610be286611624565b73ffffffffffffffffffffffffffffffffffffffff1614610c2f576040517f8fdad36100000000000000000000000000000000000000000000000000000000815260040160405180910390fd5b610c3984846112ae565b610c44338383611511565b610c6d60017f9b779b17422d0df92223018b32b4d1fa46e071723d6817e2486d003becc55f0055565b5050505050565b610c7c611280565b33610be2866113c4565b610c8e611280565b6000808686604051602001610ca49291906127bd565b604051602081830303815290604052905080516020820120915050610cd08a8c8b8b8b868a8a8a611845565b610cda86866112ae565b610ce78b8b8b8b8b611a02565b50610d1160017f9b779b17422d0df92223018b32b4d1fa46e071723d6817e2486d003becc55f0055565b50505050505050505050565b610d25611280565b604080517fa47e6983ae363f2a4c612ca9d2c8acd221ad9a6dd1ae17020ccfa05f14074fcf6020808301919091528b358284015273ffffffffffffffffffffffffffffffffffffffff898116606084015260808301899052871660a0808401919091528351808403909101815260c0830190935282519201919091207f190100000000000000000000000000000000000000000000000000000000000060e08301527f000000000000000000000000000000000000000000000000000000000000000060e283015261010282015260019061012201604080517fffffffffffffffffffffffffffffffffffffffffffffffffffffffffffffffe08184030181528282528051602091820120600084529083018083525260ff861690820152606081018490526080810183905260a0016020604051602081039080840390855afa158015610e76573d6000803e3d6000fd5b5050506020604051035173ffffffffffffffffffffffffffffffffffffffff166107158a611624565b60405180610100016040528060cf8152602001612b1b60cf913981565b610ec4611280565b60017f00000000000000000000000000000000000000000000000000000000000000007f19ac9140b08b00506c1962f90ff8781be79b2632dcbd9e86df54bcbd18cc62f98960000135898989604051610f1e929190612764565b604051908190038120610f6294939291602001938452602084019290925273ffffffffffffffffffffffffffffffffffffffff166040830152606082015260800190565b60405160208183030381529060405280519060200120604051602001610fba9291907f190100000000000000000000000000000000000000000000000000000000000081526002810192909252602282015260420190565b604080517fffffffffffffffffffffffffffffffffffffffffffffffffffffffffffffffe08184030181528282528051602091820120600084529083018083525260ff861690820152606081018490526080810183905260a0016020604051602081039080840390855afa158015611036573d6000803e3d6000fd5b5050506020604051035173ffffffffffffffffffffffffffffffffffffffff1661105f886113c4565b73ffffffffffffffffffffffffffffffffffffffff16146110ac576040517f8fdad36100000000000000000000000000000000000000000000000000000000815260040160405180910390fd5b6110b586611710565b6110eb8660208901356110ce60608b0160408c0161290a565b73ffffffffffffffffffffffffffffffffffffffff169190611ba7565b60008673ffffffffffffffffffffffffffffffffffffffff168686604051611114929190612764565b6000604051808303816000865af19150503d8060008114610b5a576040519150601f19603f3d011682016040523d82523d6000602084013e610b5f565b611159611280565b61116382826112ae565b6111708787878787611a02565b610bc760017f9b779b17422d0df92223018b32b4d1fa46e071723d6817e2486d003becc55f0055565b6111a1611280565b336111ab856113c4565b73ffffffffffffffffffffffffffffffffffffffff16146111f8576040517f8fdad36100000000000000000000000000000000000000000000000000000000815260040160405180910390fd5b61120183611710565b61121a8360208601356110ce606088016040890161290a565b60008373ffffffffffffffffffffffffffffffffffffffff168383604051611243929190612764565b6000604051808303816000865af19150503d806000811461087e576040519150601f19603f3d011682016040523d82523d6000602084013e610883565b611288611c74565b60027f9b779b17422d0df92223018b32b4d1fa46e071723d6817e2486d003becc55f0055565b803660005b82811015610c6d578484828181106112cd576112cd612927565b90506020028101906112df9190612956565b91506112f66112f1602084018461290a565b611710565b6000611305602084018461290a565b73ffffffffffffffffffffffffffffffffffffffff16602084013561132d6040860186612994565b60405161133b929190612764565b60006040518083038185875af1925050503d8060008114611378576040519150601f19603f3d011682016040523d82523d6000602084013e61137d565b606091505b50509050806113bb576040517f3f9a3b48000000000000000000000000000000000000000000000000000000008152600481018390526024016108bd565b506001016112b3565b600073ffffffffffffffffffffffffffffffffffffffff7f00000000000000000000000000000000000000000000000000000000000000001663b2b78df883356020850135611419606087016040880161290a565b611429608088016060890161290a565b608088013561143e60c08a0160a08b016129f9565b6040517fffffffff0000000000000000000000000000000000000000000000000000000060e089811b9190911682526004820197909752602481019590955273ffffffffffffffffffffffffffffffffffffffff9384166044860152929091166064840152608483015260ff1660a482015260c086013560c48201529085013560e4820152610104015b6020604051808303816000875af11580156114e7573d6000803e3d6000fd5b505050506040513d601f19601f8201168201806040525081019061150b9190612a14565b92915050565b600073ffffffffffffffffffffffffffffffffffffffff8316158015611539574791506115ca565b6040517f70a0823100000000000000000000000000000000000000000000000000000000815230600482015273ffffffffffffffffffffffffffffffffffffffff8516906370a0823190602401602060405180830381865afa1580156115a3573d6000803e3d6000fd5b505050506040513d601f19601f820116820180604052508101906115c79190612a31565b91505b82821015611604576040517ff4d678b800000000000000000000000000000000000000000000000000000000815260040160405180910390fd5b8015611619576116148583611cd1565b610c6d565b610c6d848684611dc1565b600073ffffffffffffffffffffffffffffffffffffffff7f000000000000000000000000000000000000000000000000000000000000000016633648a80783356020850135611679606087016040880161290a565b606087013561168e60a0890160808a016129f9565b6040517fffffffff0000000000000000000000000000000000000000000000000000000060e088901b1681526004810195909552602485019390935273ffffffffffffffffffffffffffffffffffffffff9091166044840152606483015260ff16608482015260a085013560a482015260c085013560c482015260e4016114c8565b7f000000000000000000000000000000000000000000000000000000000000000073ffffffffffffffffffffffffffffffffffffffff168173ffffffffffffffffffffffffffffffffffffffff1614806117b557507f000000000000000000000000000000000000000000000000000000000000000073ffffffffffffffffffffffffffffffffffffffff168173ffffffffffffffffffffffffffffffffffffffff16145b8061180b57507f000000000000000000000000000000000000000000000000000000000000000073ffffffffffffffffffffffffffffffffffffffff168173ffffffffffffffffffffffffffffffffffffffff16145b15611842576040517f513d660100000000000000000000000000000000000000000000000000000000815260040160405180910390fd5b50565b611852602084018461290a565b73ffffffffffffffffffffffffffffffffffffffff168973ffffffffffffffffffffffffffffffffffffffff16146118b6576040517f936bb5ad00000000000000000000000000000000000000000000000000000000815260040160405180910390fd5b6000807f08487e29c43aa652b8d92ae7f71993123179f4cef490c858f3443d3c76fba69890506040518181528a60208201528b60408201528960608201528860808201528760a08201528660c082015260e08120925060e0810160405250507f000000000000000000000000000000000000000000000000000000000000000073ffffffffffffffffffffffffffffffffffffffff1663137c29fe8560405180604001604052803073ffffffffffffffffffffffffffffffffffffffff16815260200188600001602001358152508a8560405180610100016040528060cf8152602001612b1b60cf913989896040518863ffffffff1660e01b81526004016119c49796959493929190612a4a565b600060405180830381600087803b1580156119de57600080fd5b505af11580156119f2573d6000803e3d6000fd5b5050505050505050505050505050565b6040517f70a08231000000000000000000000000000000000000000000000000000000008152306004820152849060009073ffffffffffffffffffffffffffffffffffffffff8316906370a0823190602401602060405180830381865afa158015611a71573d6000803e3d6000fd5b505050506040513d601f19601f82011682018060405250810190611a959190612a31565b9050611ad873ffffffffffffffffffffffffffffffffffffffff83167f000000000000000000000000000000000000000000000000000000000000000083611ba7565b6040517fe64fafcc000000000000000000000000000000000000000000000000000000008152600481018890526024810182905273ffffffffffffffffffffffffffffffffffffffff87811660448301528681166064830152858116608483015260a482018590527f0000000000000000000000000000000000000000000000000000000000000000169063e64fafcc9060c401600060405180830381600087803b158015611b8657600080fd5b505af1158015611b9a573d6000803e3d6000fd5b5050505050505050505050565b611bb48383836000611f50565b611c6f57611bc6838360006001611f50565b611c14576040517f5274afe700000000000000000000000000000000000000000000000000000000815273ffffffffffffffffffffffffffffffffffffffff841660048201526024016108bd565b611c218383836001611f50565b611c6f576040517f5274afe700000000000000000000000000000000000000000000000000000000815273ffffffffffffffffffffffffffffffffffffffff841660048201526024016108bd565b505050565b7f9b779b17422d0df92223018b32b4d1fa46e071723d6817e2486d003becc55f0054600203611ccf576040517f3ee5aeb500000000000000000000000000000000000000000000000000000000815260040160405180910390fd5b565b60008273ffffffffffffffffffffffffffffffffffffffff168260405160006040518083038185875af1925050503d8060008114611d2b576040519150601f19603f3d011682016040523d82523d6000602084013e611d30565b606091505b5050905080611c6f576040517f08c379a000000000000000000000000000000000000000000000000000000000815260206004820152602860248201527f5472616e7366657248656c7065723a20636f756c64206e6f74207472616e736660448201527f657220457468657200000000000000000000000000000000000000000000000060648201526084016108bd565b6040805173ffffffffffffffffffffffffffffffffffffffff8481166024830152604480830185905283518084039091018152606490920183526020820180517bffffffffffffffffffffffffffffffffffffffffffffffffffffffff167fa9059cbb000000000000000000000000000000000000000000000000000000001790529151600092839290871691611e589190612ae6565b6000604051808303816000865af19150503d8060008114611e95576040519150601f19603f3d011682016040523d82523d6000602084013e611e9a565b606091505b5091509150818015611ec4575080511580611ec4575080806020019051810190611ec49190612af8565b610c6d576040517f08c379a000000000000000000000000000000000000000000000000000000000815260206004820152602f60248201527f5472616e7366657248656c7065723a20636f756c64206e6f74207472616e736660448201527f657220455243323020746f6b656e73000000000000000000000000000000000060648201526084016108bd565b6040517f095ea7b300000000000000000000000000000000000000000000000000000000600081815273ffffffffffffffffffffffffffffffffffffffff8616600452602485905291602083604481808b5af192506001600051148316611fd0578383151615611fc3573d6000823e3d81fd5b6000873b113d1516831692505b60405250949350505050565b73ffffffffffffffffffffffffffffffffffffffff8116811461184257600080fd5b60008083601f84011261201057600080fd5b50813567ffffffffffffffff81111561202857600080fd5b6020830191508360208260051b850101111561204357600080fd5b9250929050565b60008060008060008060a0878903121561206357600080fd5b86359550602087013561207581611fdc565b9450604087013561208581611fdc565b935060608701359250608087013567ffffffffffffffff8111156120a857600080fd5b6120b489828a01611ffe565b979a9699509497509295939492505050565b600061010082840312156120d957600080fd5b50919050565b803560ff811681146120f057600080fd5b919050565b60008060008060008060008060006101e08a8c03121561211457600080fd5b61211e8b8b6120c6565b98506101008a013567ffffffffffffffff81111561213b57600080fd5b6121478c828d01611ffe565b9099509750506101208a013561215c81611fdc565b95506101408a013594506101608a013561217581611fdc565b93506121846101808b016120df565b989b979a5095989497939692955092936101a081013593506101c00135919050565b600060e082840312156120d957600080fd5b60008083601f8401126121ca57600080fd5b50813567ffffffffffffffff8111156121e257600080fd5b60208301915083602082850101111561204357600080fd5b600080600080610120858703121561221157600080fd5b61221b86866121a6565b935060e085013561222b81611fdc565b925061010085013567ffffffffffffffff81111561224857600080fd5b612254878288016121b8565b95989497509550505050565b6000806000806000806000610180888a03121561227c57600080fd5b61228689896121a6565b965060e088013561229681611fdc565b955061010088013567ffffffffffffffff8111156122b357600080fd5b6122bf8a828b016121b8565b90965094506122d3905061012089016120df565b9699959850939692959461014084013594506101609093013592915050565b6000806000806000610140868803121561230b57600080fd5b61231587876121a6565b945060e086013567ffffffffffffffff81111561233157600080fd5b61233d88828901611ffe565b90955093505061010086013561235281611fdc565b94979396509194610120013592915050565b6000806000806000610160868803121561237d57600080fd5b61238787876120c6565b945061010086013567ffffffffffffffff8111156123a457600080fd5b6123b088828901611ffe565b9095509350506101208601356123c581611fdc565b94979396509194610140013592915050565b6000806000806000806000806000806101608b8d0312156123f757600080fd5b8a35995060208b013561240981611fdc565b985060408b013561241981611fdc565b975060608b013561242981611fdc565b965060808b0135955060a08b013567ffffffffffffffff81111561244c57600080fd5b6124588d828e01611ffe565b9150809650508094505060c08b0160006080828f03121561247857600080fd5b5092506101408b013567ffffffffffffffff81111561249657600080fd5b6124a28d828e016121b8565b915080935050809150509295989b9194979a5092959850565b60008060008060008060008060006101c08a8c0312156124da57600080fd5b6124e48b8b6121a6565b985060e08a013567ffffffffffffffff81111561250057600080fd5b61250c8c828d01611ffe565b9099509750506101008a013561252181611fdc565b95506101208a013594506101408a013561253a81611fdc565b93506125496101608b016120df565b989b979a50959894979396929550929361018081013593506101a00135919050565b60005b8381101561258657818101518382015260200161256e565b50506000910152565b600081518084526125a781602086016020860161256b565b601f017fffffffffffffffffffffffffffffffffffffffffffffffffffffffffffffffe0169290920160200192915050565b6020815260006125ec602083018461258f565b9392505050565b60008060008060008060006101a0888a03121561260f57600080fd5b61261989896120c6565b965061010088013561262a81611fdc565b955061012088013567ffffffffffffffff81111561264757600080fd5b6126538a828b016121b8565b9096509450612667905061014089016120df565b9699959850939692959461016084013594506101809093013592915050565b600080600080600080600060c0888a0312156126a157600080fd5b8735965060208801356126b381611fdc565b955060408801356126c381611fdc565b945060608801356126d381611fdc565b93506080880135925060a088013567ffffffffffffffff8111156126f657600080fd5b6127028a828b01611ffe565b989b979a50959850939692959293505050565b600080600080610140858703121561272c57600080fd5b61273686866120c6565b935061010085013561274781611fdc565b925061012085013567ffffffffffffffff81111561224857600080fd5b8183823760009101908152919050565b8183528181602085013750600060208284010152600060207fffffffffffffffffffffffffffffffffffffffffffffffffffffffffffffffe0601f840116840101905092915050565b6020808252810182905260006040600584901b8301810190830185837fffffffffffffffffffffffffffffffffffffffffffffffffffffffffffffffa136839003015b878210156128fd577fffffffffffffffffffffffffffffffffffffffffffffffffffffffffffffffc0878603018452823581811261283d57600080fd5b8901803561284a81611fdc565b73ffffffffffffffffffffffffffffffffffffffff168652602081810135908701526040810135368290037fffffffffffffffffffffffffffffffffffffffffffffffffffffffffffffffe10181126128a257600080fd5b0160208101903567ffffffffffffffff8111156128be57600080fd5b8036038213156128cd57600080fd5b606060408801526128e2606088018284612774565b96505050602083019250602084019350600182019150612800565b5092979650505050505050565b60006020828403121561291c57600080fd5b81356125ec81611fdc565b7f4e487b7100000000000000000000000000000000000000000000000000000000600052603260045260246000fd5b600082357fffffffffffffffffffffffffffffffffffffffffffffffffffffffffffffffa183360301811261298a57600080fd5b9190910192915050565b60008083357fffffffffffffffffffffffffffffffffffffffffffffffffffffffffffffffe18436030181126129c957600080fd5b83018035915067ffffffffffffffff8211156129e457600080fd5b60200191503681900382131561204357600080fd5b600060208284031215612a0b57600080fd5b6125ec826120df565b600060208284031215612a2657600080fd5b81516125ec81611fdc565b600060208284031215612a4357600080fd5b5051919050565b60008835612a5781611fdc565b73ffffffffffffffffffffffffffffffffffffffff908116835260208a810135818501526040808c0135908501526060808c01359085015289518216608085015289015160a0840152871660c08301528560e0830152610140610100830152612ac461014083018661258f565b828103610120840152612ad8818587612774565b9a9950505050505050505050565b6000825161298a81846020870161256b565b600060208284031215612b0a57600080fd5b815180151581146125ec57600080fdfe45786563757465416e644c6f636b4552433230207769746e6573732945786563757465416e644c6f636b4552433230286279746573333220707265696d616765486173682c6164647265737320746f6b656e2c6164647265737320636c61696d416464726573732c6164647265737320726566756e64416464726573732c75696e743235362074696d656c6f636b2c627974657333322063616c6c734861736829546f6b656e5065726d697373696f6e73286164647265737320746f6b656e2c75696e7432353620616d6f756e7429a26469706673582212208822477f068ceeac1b51a60d2ce0bc8e9d96c4bda3a30c19aef09f525b554b4664736f6c63430008210033","linkReferences":{}},"methodIdentifiers":{"DOMAIN_SEPARATOR()":"3644e515","ERC20_SWAP_CONTRACT()":"2067b7ca","PERMIT2()":"6afdd850","SWAP_CONTRACT()":"cf3afa51","TYPEHASH_CLAIM()":"ebb7af92","TYPEHASH_CLAIM_CALL()":"73e09a78","TYPEHASH_EXECUTE_LOCK_ERC20()":"ea8cd088","TYPESTRING_EXECUTE_LOCK_ERC20()":"b47ec1a0","VERSION()":"ffa1ad74","claimCall((bytes32,uint256,address,uint256,uint8,bytes32,bytes32),address,bytes)":"3503c73d","claimCall((bytes32,uint256,address,uint256,uint8,bytes32,bytes32),address,bytes,uint8,bytes32,bytes32)":"5b2acb70","claimERC20Call((bytes32,uint256,address,address,uint256,uint8,bytes32,bytes32),address,bytes)":"fe54c240","claimERC20Call((bytes32,uint256,address,address,uint256,uint8,bytes32,bytes32),address,bytes,uint8,bytes32,bytes32)":"da2271c3","claimERC20Execute((bytes32,uint256,address,address,uint256,uint8,bytes32,bytes32),(address,uint256,bytes)[],address,uint256)":"9667434f","claimERC20Execute((bytes32,uint256,address,address,uint256,uint8,bytes32,bytes32),(address,uint256,bytes)[],address,uint256,address,uint8,bytes32,bytes32)":"211f3440","claimExecute((bytes32,uint256,address,uint256,uint8,bytes32,bytes32),(address,uint256,bytes)[],address,uint256)":"891d6080","claimExecute((bytes32,uint256,address,uint256,uint8,bytes32,bytes32),(address,uint256,bytes)[],address,uint256,address,uint8,bytes32,bytes32)":"a7b77acb","executeAndLock(bytes32,address,address,uint256,(address,uint256,bytes)[])":"1bcd0c09","executeAndLockERC20(bytes32,address,address,address,uint256,(address,uint256,bytes)[])":"ea81272e","executeAndLockERC20WithPermit2(bytes32,address,address,address,uint256,(address,uint256,bytes)[],((address,uint256),uint256,uint256),bytes)":"a4d5d647"},"id":5}