{
    "abi": [
        {
            "type": "constructor",
            "inputs": [
                {
                    "name": "swapContract",
                    "type": "address",
                    "internalType": "address"
                },
                {
                    "name": "erc20SwapContract",
                    "type": "address",
                    "internalType": "address"
                }
            ],
            "stateMutability": "nonpayable"
        },
        {
            "type": "receive",
            "stateMutability": "payable"
        },
        {
            "type": "function",
            "name": "DOMAIN_SEPARATOR",
            "inputs": [],
            "outputs": [
                {
                    "name": "",
                    "type": "bytes32",
                    "internalType": "bytes32"
                }
            ],
            "stateMutability": "view"
        },
        {
            "type": "function",
            "name": "ERC20_SWAP_CONTRACT",
            "inputs": [],
            "outputs": [
                {
                    "name": "",
                    "type": "address",
                    "internalType": "contract ERC20Swap"
                }
            ],
            "stateMutability": "view"
        },
        {
            "type": "function",
            "name": "SWAP_CONTRACT",
            "inputs": [],
            "outputs": [
                {
                    "name": "",
                    "type": "address",
                    "internalType": "contract EtherSwap"
                }
            ],
            "stateMutability": "view"
        },
        {
            "type": "function",
            "name": "TYPEHASH_CLAIM",
            "inputs": [],
            "outputs": [
                {
                    "name": "",
                    "type": "bytes32",
                    "internalType": "bytes32"
                }
            ],
            "stateMutability": "view"
        },
        {
            "type": "function",
            "name": "TYPEHASH_CLAIM_CALL",
            "inputs": [],
            "outputs": [
                {
                    "name": "",
                    "type": "bytes32",
                    "internalType": "bytes32"
                }
            ],
            "stateMutability": "view"
        },
        {
            "type": "function",
            "name": "VERSION",
            "inputs": [],
            "outputs": [
                {
                    "name": "",
                    "type": "uint8",
                    "internalType": "uint8"
                }
            ],
            "stateMutability": "view"
        },
        {
            "type": "function",
            "name": "claimCall",
            "inputs": [
                {
                    "name": "claim",
                    "type": "tuple",
                    "internalType": "struct Router.Claim",
                    "components": [
                        {
                            "name": "preimage",
                            "type": "bytes32",
                            "internalType": "bytes32"
                        },
                        {
                            "name": "amount",
                            "type": "uint256",
                            "internalType": "uint256"
                        },
                        {
                            "name": "refundAddress",
                            "type": "address",
                            "internalType": "address"
                        },
                        {
                            "name": "timelock",
                            "type": "uint256",
                            "internalType": "uint256"
                        },
                        {
                            "name": "v",
                            "type": "uint8",
                            "internalType": "uint8"
                        },
                        {
                            "name": "r",
                            "type": "bytes32",
                            "internalType": "bytes32"
                        },
                        {
                            "name": "s",
                            "type": "bytes32",
                            "internalType": "bytes32"
                        }
                    ]
                },
                {
                    "name": "callee",
                    "type": "address",
                    "internalType": "address"
                },
                {
                    "name": "callData",
                    "type": "bytes",
                    "internalType": "bytes"
                }
            ],
            "outputs": [],
            "stateMutability": "nonpayable"
        },
        {
            "type": "function",
            "name": "claimCall",
            "inputs": [
                {
                    "name": "claim",
                    "type": "tuple",
                    "internalType": "struct Router.Claim",
                    "components": [
                        {
                            "name": "preimage",
                            "type": "bytes32",
                            "internalType": "bytes32"
                        },
                        {
                            "name": "amount",
                            "type": "uint256",
                            "internalType": "uint256"
                        },
                        {
                            "name": "refundAddress",
                            "type": "address",
                            "internalType": "address"
                        },
                        {
                            "name": "timelock",
                            "type": "uint256",
                            "internalType": "uint256"
                        },
                        {
                            "name": "v",
                            "type": "uint8",
                            "internalType": "uint8"
                        },
                        {
                            "name": "r",
                            "type": "bytes32",
                            "internalType": "bytes32"
                        },
                        {
                            "name": "s",
                            "type": "bytes32",
                            "internalType": "bytes32"
                        }
                    ]
                },
                {
                    "name": "callee",
                    "type": "address",
                    "internalType": "address"
                },
                {
                    "name": "callData",
                    "type": "bytes",
                    "internalType": "bytes"
                },
                {
                    "name": "v",
                    "type": "uint8",
                    "internalType": "uint8"
                },
                {
                    "name": "r",
                    "type": "bytes32",
                    "internalType": "bytes32"
                },
                {
                    "name": "s",
                    "type": "bytes32",
                    "internalType": "bytes32"
                }
            ],
            "outputs": [],
            "stateMutability": "nonpayable"
        },
        {
            "type": "function",
            "name": "claimERC20Call",
            "inputs": [
                {
                    "name": "claim",
                    "type": "tuple",
                    "internalType": "struct Router.ERC20Claim",
                    "components": [
                        {
                            "name": "preimage",
                            "type": "bytes32",
                            "internalType": "bytes32"
                        },
                        {
                            "name": "amount",
                            "type": "uint256",
                            "internalType": "uint256"
                        },
                        {
                            "name": "tokenAddress",
                            "type": "address",
                            "internalType": "address"
                        },
                        {
                            "name": "refundAddress",
                            "type": "address",
                            "internalType": "address"
                        },
                        {
                            "name": "timelock",
                            "type": "uint256",
                            "internalType": "uint256"
                        },
                        {
                            "name": "v",
                            "type": "uint8",
                            "internalType": "uint8"
                        },
                        {
                            "name": "r",
                            "type": "bytes32",
                            "internalType": "bytes32"
                        },
                        {
                            "name": "s",
                            "type": "bytes32",
                            "internalType": "bytes32"
                        }
                    ]
                },
                {
                    "name": "callee",
                    "type": "address",
                    "internalType": "address"
                },
                {
                    "name": "callData",
                    "type": "bytes",
                    "internalType": "bytes"
                },
                {
                    "name": "v",
                    "type": "uint8",
                    "internalType": "uint8"
                },
                {
                    "name": "r",
                    "type": "bytes32",
                    "internalType": "bytes32"
                },
                {
                    "name": "s",
                    "type": "bytes32",
                    "internalType": "bytes32"
                }
            ],
            "outputs": [],
            "stateMutability": "nonpayable"
        },
        {
            "type": "function",
            "name": "claimERC20Call",
            "inputs": [
                {
                    "name": "claim",
                    "type": "tuple",
                    "internalType": "struct Router.ERC20Claim",
                    "components": [
                        {
                            "name": "preimage",
                            "type": "bytes32",
                            "internalType": "bytes32"
                        },
                        {
                            "name": "amount",
                            "type": "uint256",
                            "internalType": "uint256"
                        },
                        {
                            "name": "tokenAddress",
                            "type": "address",
                            "internalType": "address"
                        },
                        {
                            "name": "refundAddress",
                            "type": "address",
                            "internalType": "address"
                        },
                        {
                            "name": "timelock",
                            "type": "uint256",
                            "internalType": "uint256"
                        },
                        {
                            "name": "v",
                            "type": "uint8",
                            "internalType": "uint8"
                        },
                        {
                            "name": "r",
                            "type": "bytes32",
                            "internalType": "bytes32"
                        },
                        {
                            "name": "s",
                            "type": "bytes32",
                            "internalType": "bytes32"
                        }
                    ]
                },
                {
                    "name": "callee",
                    "type": "address",
                    "internalType": "address"
                },
                {
                    "name": "callData",
                    "type": "bytes",
                    "internalType": "bytes"
                }
            ],
            "outputs": [],
            "stateMutability": "nonpayable"
        },
        {
            "type": "function",
            "name": "claimERC20Execute",
            "inputs": [
                {
                    "name": "claim",
                    "type": "tuple",
                    "internalType": "struct Router.ERC20Claim",
                    "components": [
                        {
                            "name": "preimage",
                            "type": "bytes32",
                            "internalType": "bytes32"
                        },
                        {
                            "name": "amount",
                            "type": "uint256",
                            "internalType": "uint256"
                        },
                        {
                            "name": "tokenAddress",
                            "type": "address",
                            "internalType": "address"
                        },
                        {
                            "name": "refundAddress",
                            "type": "address",
                            "internalType": "address"
                        },
                        {
                            "name": "timelock",
                            "type": "uint256",
                            "internalType": "uint256"
                        },
                        {
                            "name": "v",
                            "type": "uint8",
                            "internalType": "uint8"
                        },
                        {
                            "name": "r",
                            "type": "bytes32",
                            "internalType": "bytes32"
                        },
                        {
                            "name": "s",
                            "type": "bytes32",
                            "internalType": "bytes32"
                        }
                    ]
                },
                {
                    "name": "calls",
                    "type": "tuple[]",
                    "internalType": "struct Router.Call[]",
                    "components": [
                        {
                            "name": "target",
                            "type": "address",
                            "internalType": "address"
                        },
                        {
                            "name": "value",
                            "type": "uint256",
                            "internalType": "uint256"
                        },
                        {
                            "name": "callData",
                            "type": "bytes",
                            "internalType": "bytes"
                        }
                    ]
                },
                {
                    "name": "token",
                    "type": "address",
                    "internalType": "address"
                },
                {
                    "name": "minAmountOut",
                    "type": "uint256",
                    "internalType": "uint256"
                },
                {
                    "name": "destination",
                    "type": "address",
                    "internalType": "address"
                },
                {
                    "name": "v",
                    "type": "uint8",
                    "internalType": "uint8"
                },
                {
                    "name": "r",
                    "type": "bytes32",
                    "internalType": "bytes32"
                },
                {
                    "name": "s",
                    "type": "bytes32",
                    "internalType": "bytes32"
                }
            ],
            "outputs": [],
            "stateMutability": "nonpayable"
        },
        {
            "type": "function",
            "name": "claimERC20Execute",
            "inputs": [
                {
                    "name": "claim",
                    "type": "tuple",
                    "internalType": "struct Router.ERC20Claim",
                    "components": [
                        {
                            "name": "preimage",
                            "type": "bytes32",
                            "internalType": "bytes32"
                        },
                        {
                            "name": "amount",
                            "type": "uint256",
                            "internalType": "uint256"
                        },
                        {
                            "name": "tokenAddress",
                            "type": "address",
                            "internalType": "address"
                        },
                        {
                            "name": "refundAddress",
                            "type": "address",
                            "internalType": "address"
                        },
                        {
                            "name": "timelock",
                            "type": "uint256",
                            "internalType": "uint256"
                        },
                        {
                            "name": "v",
                            "type": "uint8",
                            "internalType": "uint8"
                        },
                        {
                            "name": "r",
                            "type": "bytes32",
                            "internalType": "bytes32"
                        },
                        {
                            "name": "s",
                            "type": "bytes32",
                            "internalType": "bytes32"
                        }
                    ]
                },
                {
                    "name": "calls",
                    "type": "tuple[]",
                    "internalType": "struct Router.Call[]",
                    "components": [
                        {
                            "name": "target",
                            "type": "address",
                            "internalType": "address"
                        },
                        {
                            "name": "value",
                            "type": "uint256",
                            "internalType": "uint256"
                        },
                        {
                            "name": "callData",
                            "type": "bytes",
                            "internalType": "bytes"
                        }
                    ]
                },
                {
                    "name": "token",
                    "type": "address",
                    "internalType": "address"
                },
                {
                    "name": "minAmountOut",
                    "type": "uint256",
                    "internalType": "uint256"
                }
            ],
            "outputs": [],
            "stateMutability": "nonpayable"
        },
        {
            "type": "function",
            "name": "claimExecute",
            "inputs": [
                {
                    "name": "claim",
                    "type": "tuple",
                    "internalType": "struct Router.Claim",
                    "components": [
                        {
                            "name": "preimage",
                            "type": "bytes32",
                            "internalType": "bytes32"
                        },
                        {
                            "name": "amount",
                            "type": "uint256",
                            "internalType": "uint256"
                        },
                        {
                            "name": "refundAddress",
                            "type": "address",
                            "internalType": "address"
                        },
                        {
                            "name": "timelock",
                            "type": "uint256",
                            "internalType": "uint256"
                        },
                        {
                            "name": "v",
                            "type": "uint8",
                            "internalType": "uint8"
                        },
                        {
                            "name": "r",
                            "type": "bytes32",
                            "internalType": "bytes32"
                        },
                        {
                            "name": "s",
                            "type": "bytes32",
                            "internalType": "bytes32"
                        }
                    ]
                },
                {
                    "name": "calls",
                    "type": "tuple[]",
                    "internalType": "struct Router.Call[]",
                    "components": [
                        {
                            "name": "target",
                            "type": "address",
                            "internalType": "address"
                        },
                        {
                            "name": "value",
                            "type": "uint256",
                            "internalType": "uint256"
                        },
                        {
                            "name": "callData",
                            "type": "bytes",
                            "internalType": "bytes"
                        }
                    ]
                },
                {
                    "name": "token",
                    "type": "address",
                    "internalType": "address"
                },
                {
                    "name": "minAmountOut",
                    "type": "uint256",
                    "internalType": "uint256"
                }
            ],
            "outputs": [],
            "stateMutability": "nonpayable"
        },
        {
            "type": "function",
            "name": "claimExecute",
            "inputs": [
                {
                    "name": "claim",
                    "type": "tuple",
                    "internalType": "struct Router.Claim",
                    "components": [
                        {
                            "name": "preimage",
                            "type": "bytes32",
                            "internalType": "bytes32"
                        },
                        {
                            "name": "amount",
                            "type": "uint256",
                            "internalType": "uint256"
                        },
                        {
                            "name": "refundAddress",
                            "type": "address",
                            "internalType": "address"
                        },
                        {
                            "name": "timelock",
                            "type": "uint256",
                            "internalType": "uint256"
                        },
                        {
                            "name": "v",
                            "type": "uint8",
                            "internalType": "uint8"
                        },
                        {
                            "name": "r",
                            "type": "bytes32",
                            "internalType": "bytes32"
                        },
                        {
                            "name": "s",
                            "type": "bytes32",
                            "internalType": "bytes32"
                        }
                    ]
                },
                {
                    "name": "calls",
                    "type": "tuple[]",
                    "internalType": "struct Router.Call[]",
                    "components": [
                        {
                            "name": "target",
                            "type": "address",
                            "internalType": "address"
                        },
                        {
                            "name": "value",
                            "type": "uint256",
                            "internalType": "uint256"
                        },
                        {
                            "name": "callData",
                            "type": "bytes",
                            "internalType": "bytes"
                        }
                    ]
                },
                {
                    "name": "token",
                    "type": "address",
                    "internalType": "address"
                },
                {
                    "name": "minAmountOut",
                    "type": "uint256",
                    "internalType": "uint256"
                },
                {
                    "name": "destination",
                    "type": "address",
                    "internalType": "address"
                },
                {
                    "name": "v",
                    "type": "uint8",
                    "internalType": "uint8"
                },
                {
                    "name": "r",
                    "type": "bytes32",
                    "internalType": "bytes32"
                },
                {
                    "name": "s",
                    "type": "bytes32",
                    "internalType": "bytes32"
                }
            ],
            "outputs": [],
            "stateMutability": "nonpayable"
        },
        {
            "type": "error",
            "name": "CallFailed",
            "inputs": [
                {
                    "name": "index",
                    "type": "uint256",
                    "internalType": "uint256"
                }
            ]
        },
        {
            "type": "error",
            "name": "ClaimInvalidAddress",
            "inputs": []
        },
        {
            "type": "error",
            "name": "InsufficientBalance",
            "inputs": []
        }
    ],
    "bytecode": {
        "object": "0x7f8b73c3c69bb8fe3d512ecc4cf759cc79239f7b179b0ffacaa9a75d522b39400f6101009081527f3f0593d90c203cedd52beaf1f2e33ef6958a48ee6bc9180eb653d00d34ee618d610120527fc89efdaa54c0f20c7adf612882df0950f5a951637e0307cdcb4c672f298b8bc6610140524661016052306101805260a060e08190526101a0604052902060c05234801561009857600080fd5b50604051611e92380380611e928339810160408190526100b7916100ea565b6001600160a01b039182166080521660a05261011d565b80516001600160a01b03811681146100e557600080fd5b919050565b600080604083850312156100fd57600080fd5b610106836100ce565b9150610114602084016100ce565b90509250929050565b60805160a05160c051611d1d6101756000396000818161019f015281816103f60152818161064e01528181610a040152610ade01526000818160ff0152610f5c01526000818161029501526112d40152611d1d6000f3fe6080604052600436106100e15760003560e01c80639667434f1161007f578063da2271c311610059578063da2271c3146102b7578063ebb7af92146102d7578063fe54c2401461030b578063ffa1ad741461032b57600080fd5b80639667434f14610243578063a7b77acb14610263578063cf3afa511461028357600080fd5b80633644e515116100bb5780633644e5151461018d5780635b2acb70146101cf57806373e09a78146101ef578063891d60801461022357600080fd5b80632067b7ca146100ed578063211f34401461014b5780633503c73d1461016d57600080fd5b366100e857005b600080fd5b3480156100f957600080fd5b506101217f000000000000000000000000000000000000000000000000000000000000000081565b60405173ffffffffffffffffffffffffffffffffffffffff90911681526020015b60405180910390f35b34801561015757600080fd5b5061016b6101663660046116cb565b610352565b005b34801561017957600080fd5b5061016b6101883660046117d0565b610539565b34801561019957600080fd5b506101c17f000000000000000000000000000000000000000000000000000000000000000081565b604051908152602001610142565b3480156101db57600080fd5b5061016b6101ea366004611836565b61064a565b3480156101fb57600080fd5b506101c17f19ac9140b08b00506c1962f90ff8781be79b2632dcbd9e86df54bcbd18cc62f981565b34801561022f57600080fd5b5061016b61023e3660046118c8565b6108ea565b34801561024f57600080fd5b5061016b61025e36600461193a565b610956565b34801561026f57600080fd5b5061016b61027e3660046119ad565b610960565b34801561028f57600080fd5b506101217f000000000000000000000000000000000000000000000000000000000000000081565b3480156102c357600080fd5b5061016b6102d2366004611a5d565b610ada565b3480156102e357600080fd5b506101c17fa47e6983ae363f2a4c612ca9d2c8acd221ad9a6dd1ae17020ccfa05f14074fcf81565b34801561031757600080fd5b5061016b610326366004611af0565b610dd7565b34801561033757600080fd5b50610340600181565b60405160ff9091168152602001610142565b604080517fa47e6983ae363f2a4c612ca9d2c8acd221ad9a6dd1ae17020ccfa05f14074fcf6020808301919091528b358284015273ffffffffffffffffffffffffffffffffffffffff898116606084015260808301899052871660a0808401919091528351808403909101815260c0830190935282519201919091207f190100000000000000000000000000000000000000000000000000000000000060e08301527f000000000000000000000000000000000000000000000000000000000000000060e283015261010282015260019061012201604080517fffffffffffffffffffffffffffffffffffffffffffffffffffffffffffffffe08184030181528282528051602091820120600084529083018083525260ff861690820152606081018490526080810183905260a0016020604051602081039080840390855afa1580156104a3573d6000803e3d6000fd5b5050506020604051035173ffffffffffffffffffffffffffffffffffffffff166104cc8a610f43565b73ffffffffffffffffffffffffffffffffffffffff1614610519576040517f8fdad36100000000000000000000000000000000000000000000000000000000815260040160405180910390fd5b6105238888611090565b61052e848787611191565b505050505050505050565b33610543856112bb565b73ffffffffffffffffffffffffffffffffffffffff1614610590576040517f8fdad36100000000000000000000000000000000000000000000000000000000815260040160405180910390fd5b60008373ffffffffffffffffffffffffffffffffffffffff16856020013584846040516105be929190611b3f565b60006040518083038185875af1925050503d80600081146105fb576040519150601f19603f3d011682016040523d82523d6000602084013e610600565b606091505b5050905080610643576040517f3f9a3b48000000000000000000000000000000000000000000000000000000008152600060048201526024015b60405180910390fd5b5050505050565b60017f00000000000000000000000000000000000000000000000000000000000000007f19ac9140b08b00506c1962f90ff8781be79b2632dcbd9e86df54bcbd18cc62f989600001358989896040516106a4929190611b3f565b6040519081900381206106e894939291602001938452602084019290925273ffffffffffffffffffffffffffffffffffffffff166040830152606082015260800190565b604051602081830303815290604052805190602001206040516020016107409291907f190100000000000000000000000000000000000000000000000000000000000081526002810192909252602282015260420190565b604080517fffffffffffffffffffffffffffffffffffffffffffffffffffffffffffffffe08184030181528282528051602091820120600084529083018083525260ff861690820152606081018490526080810183905260a0016020604051602081039080840390855afa1580156107bc573d6000803e3d6000fd5b5050506020604051035173ffffffffffffffffffffffffffffffffffffffff166107e5886112bb565b73ffffffffffffffffffffffffffffffffffffffff1614610832576040517f8fdad36100000000000000000000000000000000000000000000000000000000815260040160405180910390fd5b60008673ffffffffffffffffffffffffffffffffffffffff1688602001358787604051610860929190611b3f565b60006040518083038185875af1925050503d806000811461089d576040519150601f19603f3d011682016040523d82523d6000602084013e6108a2565b606091505b50509050806108e0576040517f3f9a3b480000000000000000000000000000000000000000000000000000000081526000600482015260240161063a565b5050505050505050565b336108f4866112bb565b73ffffffffffffffffffffffffffffffffffffffff1614610941576040517f8fdad36100000000000000000000000000000000000000000000000000000000815260040160405180910390fd5b61094b8484611090565b610643338383611191565b336108f486610f43565b604080517fa47e6983ae363f2a4c612ca9d2c8acd221ad9a6dd1ae17020ccfa05f14074fcf6020808301919091528b358284015273ffffffffffffffffffffffffffffffffffffffff898116606084015260808301899052871660a0808401919091528351808403909101815260c0830190935282519201919091207f190100000000000000000000000000000000000000000000000000000000000060e08301527f000000000000000000000000000000000000000000000000000000000000000060e283015261010282015260019061012201604080517fffffffffffffffffffffffffffffffffffffffffffffffffffffffffffffffe08184030181528282528051602091820120600084529083018083525260ff861690820152606081018490526080810183905260a0016020604051602081039080840390855afa158015610ab1573d6000803e3d6000fd5b5050506020604051035173ffffffffffffffffffffffffffffffffffffffff166104cc8a6112bb565b60017f00000000000000000000000000000000000000000000000000000000000000007f19ac9140b08b00506c1962f90ff8781be79b2632dcbd9e86df54bcbd18cc62f98960000135898989604051610b34929190611b3f565b604051908190038120610b7894939291602001938452602084019290925273ffffffffffffffffffffffffffffffffffffffff166040830152606082015260800190565b60405160208183030381529060405280519060200120604051602001610bd09291907f190100000000000000000000000000000000000000000000000000000000000081526002810192909252602282015260420190565b604080517fffffffffffffffffffffffffffffffffffffffffffffffffffffffffffffffe08184030181528282528051602091820120600084529083018083525260ff861690820152606081018490526080810183905260a0016020604051602081039080840390855afa158015610c4c573d6000803e3d6000fd5b5050506020604051035173ffffffffffffffffffffffffffffffffffffffff16610c7588610f43565b73ffffffffffffffffffffffffffffffffffffffff1614610cc2576040517f8fdad36100000000000000000000000000000000000000000000000000000000815260040160405180910390fd5b610cd26060880160408901611b4f565b6040517f095ea7b300000000000000000000000000000000000000000000000000000000815273ffffffffffffffffffffffffffffffffffffffff888116600483015260208a01356024830152919091169063095ea7b3906044016020604051808303816000875af1158015610d4c573d6000803e3d6000fd5b505050506040513d601f19601f82011682018060405250810190610d709190611b73565b5060008673ffffffffffffffffffffffffffffffffffffffff168686604051610d9a929190611b3f565b6000604051808303816000865af19150503d806000811461089d576040519150601f19603f3d011682016040523d82523d6000602084013e6108a2565b33610de185610f43565b73ffffffffffffffffffffffffffffffffffffffff1614610e2e576040517f8fdad36100000000000000000000000000000000000000000000000000000000815260040160405180910390fd5b610e3e6060850160408601611b4f565b6040517f095ea7b300000000000000000000000000000000000000000000000000000000815273ffffffffffffffffffffffffffffffffffffffff858116600483015260208701356024830152919091169063095ea7b3906044016020604051808303816000875af1158015610eb8573d6000803e3d6000fd5b505050506040513d601f19601f82011682018060405250810190610edc9190611b73565b5060008373ffffffffffffffffffffffffffffffffffffffff168383604051610f06929190611b3f565b6000604051808303816000865af19150503d80600081146105fb576040519150601f19603f3d011682016040523d82523d6000602084013e610600565b600073ffffffffffffffffffffffffffffffffffffffff7f00000000000000000000000000000000000000000000000000000000000000001663b2b78df883356020850135610f986060870160408801611b4f565b610fa86080880160608901611b4f565b6080880135610fbd60c08a0160a08b01611b95565b6040517fffffffff0000000000000000000000000000000000000000000000000000000060e089811b9190911682526004820197909752602481019590955273ffffffffffffffffffffffffffffffffffffffff9384166044860152929091166064840152608483015260ff1660a482015260c086013560c48201529085013560e4820152610104015b6020604051808303816000875af1158015611066573d6000803e3d6000fd5b505050506040513d601f19601f8201168201806040525081019061108a9190611bb0565b92915050565b803660005b82811015610643578484828181106110af576110af611bcd565b90506020028101906110c19190611bfc565b915060006110d26020840184611b4f565b73ffffffffffffffffffffffffffffffffffffffff1660208401356110fa6040860186611c3a565b604051611108929190611b3f565b60006040518083038185875af1925050503d8060008114611145576040519150601f19603f3d011682016040523d82523d6000602084013e61114a565b606091505b5050905080611188576040517f3f9a3b480000000000000000000000000000000000000000000000000000000081526004810183905260240161063a565b50600101611095565b600073ffffffffffffffffffffffffffffffffffffffff83166111b5575047611246565b6040517f70a0823100000000000000000000000000000000000000000000000000000000815230600482015273ffffffffffffffffffffffffffffffffffffffff8416906370a0823190602401602060405180830381865afa15801561121f573d6000803e3d6000fd5b505050506040513d601f19601f820116820180604052508101906112439190611c9f565b90505b81811015611280576040517ff4d678b800000000000000000000000000000000000000000000000000000000815260040160405180910390fd5b73ffffffffffffffffffffffffffffffffffffffff83166112aa576112a584826113a7565b6112b5565b6112b583858361149c565b50505050565b600073ffffffffffffffffffffffffffffffffffffffff7f000000000000000000000000000000000000000000000000000000000000000016633648a807833560208501356113106060870160408801611b4f565b606087013561132560a0890160808a01611b95565b6040517fffffffff0000000000000000000000000000000000000000000000000000000060e088901b1681526004810195909552602485019390935273ffffffffffffffffffffffffffffffffffffffff9091166044840152606483015260ff16608482015260a085013560a482015260c085013560c482015260e401611047565b60008273ffffffffffffffffffffffffffffffffffffffff168260405160006040518083038185875af1925050503d8060008114611401576040519150601f19603f3d011682016040523d82523d6000602084013e611406565b606091505b5050905080611497576040517f08c379a000000000000000000000000000000000000000000000000000000000815260206004820152602860248201527f5472616e7366657248656c7065723a20636f756c64206e6f74207472616e736660448201527f6572204574686572000000000000000000000000000000000000000000000000606482015260840161063a565b505050565b6040805173ffffffffffffffffffffffffffffffffffffffff8481166024830152604480830185905283518084039091018152606490920183526020820180517bffffffffffffffffffffffffffffffffffffffffffffffffffffffff167fa9059cbb0000000000000000000000000000000000000000000000000000000017905291516000928392908716916115339190611cb8565b6000604051808303816000865af19150503d8060008114611570576040519150601f19603f3d011682016040523d82523d6000602084013e611575565b606091505b509150915081801561159f57508051158061159f57508080602001905181019061159f9190611b73565b610643576040517f08c379a000000000000000000000000000000000000000000000000000000000815260206004820152602f60248201527f5472616e7366657248656c7065723a20636f756c64206e6f74207472616e736660448201527f657220455243323020746f6b656e730000000000000000000000000000000000606482015260840161063a565b6000610100828403121561163e57600080fd5b50919050565b60008083601f84011261165657600080fd5b50813567ffffffffffffffff81111561166e57600080fd5b6020830191508360208260051b850101111561168957600080fd5b9250929050565b73ffffffffffffffffffffffffffffffffffffffff811681146116b257600080fd5b50565b803560ff811681146116c657600080fd5b919050565b60008060008060008060008060006101e08a8c0312156116ea57600080fd5b6116f48b8b61162b565b98506101008a013567ffffffffffffffff81111561171157600080fd5b61171d8c828d01611644565b9099509750506101208a013561173281611690565b95506101408a013594506101608a013561174b81611690565b935061175a6101808b016116b5565b989b979a5095989497939692955092936101a081013593506101c00135919050565b600060e0828403121561163e57600080fd5b60008083601f8401126117a057600080fd5b50813567ffffffffffffffff8111156117b857600080fd5b60208301915083602082850101111561168957600080fd5b60008060008061012085870312156117e757600080fd5b6117f1868661177c565b935060e085013561180181611690565b925061010085013567ffffffffffffffff81111561181e57600080fd5b61182a8782880161178e565b95989497509550505050565b6000806000806000806000610180888a03121561185257600080fd5b61185c898961177c565b965060e088013561186c81611690565b955061010088013567ffffffffffffffff81111561188957600080fd5b6118958a828b0161178e565b90965094506118a9905061012089016116b5565b9699959850939692959461014084013594506101609093013592915050565b600080600080600061014086880312156118e157600080fd5b6118eb878761177c565b945060e086013567ffffffffffffffff81111561190757600080fd5b61191388828901611644565b90955093505061010086013561192881611690565b94979396509194610120013592915050565b6000806000806000610160868803121561195357600080fd5b61195d878761162b565b945061010086013567ffffffffffffffff81111561197a57600080fd5b61198688828901611644565b90955093505061012086013561199b81611690565b94979396509194610140013592915050565b60008060008060008060008060006101c08a8c0312156119cc57600080fd5b6119d68b8b61177c565b985060e08a013567ffffffffffffffff8111156119f257600080fd5b6119fe8c828d01611644565b9099509750506101008a0135611a1381611690565b95506101208a013594506101408a0135611a2c81611690565b9350611a3b6101608b016116b5565b989b979a50959894979396929550929361018081013593506101a00135919050565b60008060008060008060006101a0888a031215611a7957600080fd5b611a83898961162b565b9650610100880135611a9481611690565b955061012088013567ffffffffffffffff811115611ab157600080fd5b611abd8a828b0161178e565b9096509450611ad1905061014089016116b5565b9699959850939692959461016084013594506101809093013592915050565b6000806000806101408587031215611b0757600080fd5b611b11868661162b565b9350610100850135611b2281611690565b925061012085013567ffffffffffffffff81111561181e57600080fd5b8183823760009101908152919050565b600060208284031215611b6157600080fd5b8135611b6c81611690565b9392505050565b600060208284031215611b8557600080fd5b81518015158114611b6c57600080fd5b600060208284031215611ba757600080fd5b611b6c826116b5565b600060208284031215611bc257600080fd5b8151611b6c81611690565b7f4e487b7100000000000000000000000000000000000000000000000000000000600052603260045260246000fd5b600082357fffffffffffffffffffffffffffffffffffffffffffffffffffffffffffffffa1833603018112611c3057600080fd5b9190910192915050565b60008083357fffffffffffffffffffffffffffffffffffffffffffffffffffffffffffffffe1843603018112611c6f57600080fd5b83018035915067ffffffffffffffff821115611c8a57600080fd5b60200191503681900382131561168957600080fd5b600060208284031215611cb157600080fd5b5051919050565b6000825160005b81811015611cd95760208186018101518583015201611cbf565b50600092019182525091905056fea26469706673582212206a61091cf9d56571382a8b2d2c0ad70c1e1646d639279b46a675de6a2654447e64736f6c63430008210033",
        "linkReferences": {}
    },
    "methodIdentifiers": {
        "DOMAIN_SEPARATOR()": "3644e515",
        "ERC20_SWAP_CONTRACT()": "2067b7ca",
        "SWAP_CONTRACT()": "cf3afa51",
        "TYPEHASH_CLAIM()": "ebb7af92",
        "TYPEHASH_CLAIM_CALL()": "73e09a78",
        "VERSION()": "ffa1ad74",
        "claimCall((bytes32,uint256,address,uint256,uint8,bytes32,bytes32),address,bytes)": "3503c73d",
        "claimCall((bytes32,uint256,address,uint256,uint8,bytes32,bytes32),address,bytes,uint8,bytes32,bytes32)": "5b2acb70",
        "claimERC20Call((bytes32,uint256,address,address,uint256,uint8,bytes32,bytes32),address,bytes)": "fe54c240",
        "claimERC20Call((bytes32,uint256,address,address,uint256,uint8,bytes32,bytes32),address,bytes,uint8,bytes32,bytes32)": "da2271c3",
        "claimERC20Execute((bytes32,uint256,address,address,uint256,uint8,bytes32,bytes32),(address,uint256,bytes)[],address,uint256)": "9667434f",
        "claimERC20Execute((bytes32,uint256,address,address,uint256,uint8,bytes32,bytes32),(address,uint256,bytes)[],address,uint256,address,uint8,bytes32,bytes32)": "211f3440",
        "claimExecute((bytes32,uint256,address,uint256,uint8,bytes32,bytes32),(address,uint256,bytes)[],address,uint256)": "891d6080",
        "claimExecute((bytes32,uint256,address,uint256,uint8,bytes32,bytes32),(address,uint256,bytes)[],address,uint256,address,uint8,bytes32,bytes32)": "a7b77acb"
    },
    "id": 5
}